{
  "contractName": "DEFYGenesisMask",
  "abi": [
    {
      "inputs": [
        {
          "internalType": "address",
          "name": "vrfCoordinator",
          "type": "address"
        },
        {
          "internalType": "address",
          "name": "vrfLinkToken",
          "type": "address"
        }
      ],
      "stateMutability": "nonpayable",
      "type": "constructor"
    },
    {
      "inputs": [
        {
          "internalType": "address",
          "name": "have",
          "type": "address"
        },
        {
          "internalType": "address",
          "name": "want",
          "type": "address"
        }
      ],
      "name": "OnlyCoordinatorCanFulfill",
      "type": "error"
    },
    {
      "anonymous": false,
      "inputs": [
        {
          "indexed": true,
          "internalType": "address",
          "name": "owner",
          "type": "address"
        },
        {
          "indexed": true,
          "internalType": "address",
          "name": "approved",
          "type": "address"
        },
        {
          "indexed": true,
          "internalType": "uint256",
          "name": "tokenId",
          "type": "uint256"
        }
      ],
      "name": "Approval",
      "type": "event"
    },
    {
      "anonymous": false,
      "inputs": [
        {
          "indexed": true,
          "internalType": "address",
          "name": "owner",
          "type": "address"
        },
        {
          "indexed": true,
          "internalType": "address",
          "name": "operator",
          "type": "address"
        },
        {
          "indexed": false,
          "internalType": "bool",
          "name": "approved",
          "type": "bool"
        }
      ],
      "name": "ApprovalForAll",
      "type": "event"
    },
    {
      "anonymous": false,
      "inputs": [
        {
          "indexed": false,
          "internalType": "uint256",
          "name": "tokenId",
          "type": "uint256"
        },
        {
          "indexed": false,
          "internalType": "uint256",
          "name": "amount",
          "type": "uint256"
        }
      ],
      "name": "MaskTokensAssigned",
      "type": "event"
    },
    {
      "anonymous": false,
      "inputs": [
        {
          "indexed": false,
          "internalType": "uint256",
          "name": "tokenId",
          "type": "uint256"
        },
        {
          "indexed": false,
          "internalType": "uint256",
          "name": "amount",
          "type": "uint256"
        }
      ],
      "name": "MaskTokensUnlocked",
      "type": "event"
    },
    {
      "anonymous": false,
      "inputs": [
        {
          "indexed": true,
          "internalType": "address",
          "name": "previousOwner",
          "type": "address"
        },
        {
          "indexed": true,
          "internalType": "address",
          "name": "newOwner",
          "type": "address"
        }
      ],
      "name": "OwnershipTransferred",
      "type": "event"
    },
    {
      "anonymous": false,
      "inputs": [
        {
          "indexed": false,
          "internalType": "address",
          "name": "account",
          "type": "address"
        }
      ],
      "name": "Paused",
      "type": "event"
    },
    {
      "anonymous": false,
      "inputs": [
        {
          "indexed": true,
          "internalType": "bytes32",
          "name": "role",
          "type": "bytes32"
        },
        {
          "indexed": true,
          "internalType": "bytes32",
          "name": "previousAdminRole",
          "type": "bytes32"
        },
        {
          "indexed": true,
          "internalType": "bytes32",
          "name": "newAdminRole",
          "type": "bytes32"
        }
      ],
      "name": "RoleAdminChanged",
      "type": "event"
    },
    {
      "anonymous": false,
      "inputs": [
        {
          "indexed": true,
          "internalType": "bytes32",
          "name": "role",
          "type": "bytes32"
        },
        {
          "indexed": true,
          "internalType": "address",
          "name": "account",
          "type": "address"
        },
        {
          "indexed": true,
          "internalType": "address",
          "name": "sender",
          "type": "address"
        }
      ],
      "name": "RoleGranted",
      "type": "event"
    },
    {
      "anonymous": false,
      "inputs": [
        {
          "indexed": true,
          "internalType": "bytes32",
          "name": "role",
          "type": "bytes32"
        },
        {
          "indexed": true,
          "internalType": "address",
          "name": "account",
          "type": "address"
        },
        {
          "indexed": true,
          "internalType": "address",
          "name": "sender",
          "type": "address"
        }
      ],
      "name": "RoleRevoked",
      "type": "event"
    },
    {
      "anonymous": false,
      "inputs": [
        {
          "indexed": true,
          "internalType": "address",
          "name": "from",
          "type": "address"
        },
        {
          "indexed": true,
          "internalType": "address",
          "name": "to",
          "type": "address"
        },
        {
          "indexed": true,
          "internalType": "uint256",
          "name": "tokenId",
          "type": "uint256"
        }
      ],
      "name": "Transfer",
      "type": "event"
    },
    {
      "anonymous": false,
      "inputs": [
        {
          "indexed": false,
          "internalType": "address",
          "name": "account",
          "type": "address"
        }
      ],
      "name": "Unpaused",
      "type": "event"
    },
    {
      "inputs": [],
      "name": "BALANCE_WITHDRAWER_ROLE",
      "outputs": [
        {
          "internalType": "bytes32",
          "name": "",
          "type": "bytes32"
        }
      ],
      "stateMutability": "view",
      "type": "function"
    },
    {
      "inputs": [],
      "name": "DEFAULT_ADMIN_ROLE",
      "outputs": [
        {
          "internalType": "bytes32",
          "name": "",
          "type": "bytes32"
        }
      ],
      "stateMutability": "view",
      "type": "function"
    },
    {
      "inputs": [],
      "name": "MINTER_ROLE",
      "outputs": [
        {
          "internalType": "bytes32",
          "name": "",
          "type": "bytes32"
        }
      ],
      "stateMutability": "view",
      "type": "function"
    },
    {
      "inputs": [],
      "name": "PAUSER_ROLE",
      "outputs": [
        {
          "internalType": "bytes32",
          "name": "",
          "type": "bytes32"
        }
      ],
      "stateMutability": "view",
      "type": "function"
    },
    {
      "inputs": [],
      "name": "TOKEN_UNLOCKER_ROLE",
      "outputs": [
        {
          "internalType": "bytes32",
          "name": "",
          "type": "bytes32"
        }
      ],
      "stateMutability": "view",
      "type": "function"
    },
    {
      "inputs": [
        {
          "internalType": "enum DEFYGenesisMask.MaskType",
          "name": "",
          "type": "uint8"
        }
      ],
      "name": "_remainingMaskTypeAllocation",
      "outputs": [
        {
          "internalType": "uint256",
          "name": "",
          "type": "uint256"
        }
      ],
      "stateMutability": "view",
      "type": "function"
    },
    {
      "inputs": [
        {
          "internalType": "address",
          "name": "to",
          "type": "address"
        },
        {
          "internalType": "uint256",
          "name": "tokenId",
          "type": "uint256"
        }
      ],
      "name": "approve",
      "outputs": [],
      "stateMutability": "nonpayable",
      "type": "function"
    },
    {
      "inputs": [
        {
          "internalType": "address",
          "name": "owner",
          "type": "address"
        }
      ],
      "name": "balanceOf",
      "outputs": [
        {
          "internalType": "uint256",
          "name": "",
          "type": "uint256"
        }
      ],
      "stateMutability": "view",
      "type": "function"
    },
    {
      "inputs": [],
      "name": "chainlinkVrfActive",
      "outputs": [
        {
          "internalType": "bool",
          "name": "",
          "type": "bool"
        }
      ],
      "stateMutability": "view",
      "type": "function"
    },
    {
      "inputs": [],
      "name": "commissionDivisor",
      "outputs": [
        {
          "internalType": "uint256",
          "name": "",
          "type": "uint256"
        }
      ],
      "stateMutability": "view",
      "type": "function"
    },
    {
      "inputs": [],
      "name": "defyGenesisInvite",
      "outputs": [
        {
          "internalType": "contract IDEFYGenesisInvite",
          "name": "",
          "type": "address"
        }
      ],
      "stateMutability": "view",
      "type": "function"
    },
    {
      "inputs": [
        {
          "internalType": "uint256",
          "name": "tokenId",
          "type": "uint256"
        }
      ],
      "name": "getApproved",
      "outputs": [
        {
          "internalType": "address",
          "name": "",
          "type": "address"
        }
      ],
      "stateMutability": "view",
      "type": "function"
    },
    {
      "inputs": [
        {
          "internalType": "bytes32",
          "name": "role",
          "type": "bytes32"
        }
      ],
      "name": "getRoleAdmin",
      "outputs": [
        {
          "internalType": "bytes32",
          "name": "",
          "type": "bytes32"
        }
      ],
      "stateMutability": "view",
      "type": "function"
    },
    {
      "inputs": [
        {
          "internalType": "bytes32",
          "name": "role",
          "type": "bytes32"
        },
        {
          "internalType": "address",
          "name": "account",
          "type": "address"
        }
      ],
      "name": "grantRole",
      "outputs": [],
      "stateMutability": "nonpayable",
      "type": "function"
    },
    {
      "inputs": [
        {
          "internalType": "bytes32",
          "name": "role",
          "type": "bytes32"
        },
        {
          "internalType": "address",
          "name": "account",
          "type": "address"
        }
      ],
      "name": "hasRole",
      "outputs": [
        {
          "internalType": "bool",
          "name": "",
          "type": "bool"
        }
      ],
      "stateMutability": "view",
      "type": "function"
    },
    {
      "inputs": [
        {
          "internalType": "address",
          "name": "owner",
          "type": "address"
        },
        {
          "internalType": "address",
          "name": "operator",
          "type": "address"
        }
      ],
      "name": "isApprovedForAll",
      "outputs": [
        {
          "internalType": "bool",
          "name": "",
          "type": "bool"
        }
      ],
      "stateMutability": "view",
      "type": "function"
    },
    {
      "inputs": [],
      "name": "mintPrice",
      "outputs": [
        {
          "internalType": "uint256",
          "name": "",
          "type": "uint256"
        }
      ],
      "stateMutability": "view",
      "type": "function"
    },
    {
      "inputs": [],
      "name": "name",
      "outputs": [
        {
          "internalType": "string",
          "name": "",
          "type": "string"
        }
      ],
      "stateMutability": "view",
      "type": "function"
    },
    {
      "inputs": [],
      "name": "owner",
      "outputs": [
        {
          "internalType": "address",
          "name": "",
          "type": "address"
        }
      ],
      "stateMutability": "view",
      "type": "function"
    },
    {
      "inputs": [
        {
          "internalType": "uint256",
          "name": "tokenId",
          "type": "uint256"
        }
      ],
      "name": "ownerOf",
      "outputs": [
        {
          "internalType": "address",
          "name": "",
          "type": "address"
        }
      ],
      "stateMutability": "view",
      "type": "function"
    },
    {
      "inputs": [],
      "name": "paused",
      "outputs": [
        {
          "internalType": "bool",
          "name": "",
          "type": "bool"
        }
      ],
      "stateMutability": "view",
      "type": "function"
    },
    {
      "inputs": [],
      "name": "phaseOneActive",
      "outputs": [
        {
          "internalType": "bool",
          "name": "",
          "type": "bool"
        }
      ],
      "stateMutability": "view",
      "type": "function"
    },
    {
      "inputs": [],
      "name": "phaseTwoActive",
      "outputs": [
        {
          "internalType": "bool",
          "name": "",
          "type": "bool"
        }
      ],
      "stateMutability": "view",
      "type": "function"
    },
    {
      "inputs": [],
      "name": "publicMintActive",
      "outputs": [
        {
          "internalType": "bool",
          "name": "",
          "type": "bool"
        }
      ],
      "stateMutability": "view",
      "type": "function"
    },
    {
      "inputs": [
        {
          "internalType": "uint256",
          "name": "requestId",
          "type": "uint256"
        },
        {
          "internalType": "uint256[]",
          "name": "randomWords",
          "type": "uint256[]"
        }
      ],
      "name": "rawFulfillRandomWords",
      "outputs": [],
      "stateMutability": "nonpayable",
      "type": "function"
    },
    {
      "inputs": [],
      "name": "renounceOwnership",
      "outputs": [],
      "stateMutability": "nonpayable",
      "type": "function"
    },
    {
      "inputs": [
        {
          "internalType": "bytes32",
          "name": "role",
          "type": "bytes32"
        },
        {
          "internalType": "address",
          "name": "account",
          "type": "address"
        }
      ],
      "name": "renounceRole",
      "outputs": [],
      "stateMutability": "nonpayable",
      "type": "function"
    },
    {
      "inputs": [
        {
          "internalType": "bytes32",
          "name": "role",
          "type": "bytes32"
        },
        {
          "internalType": "address",
          "name": "account",
          "type": "address"
        }
      ],
      "name": "revokeRole",
      "outputs": [],
      "stateMutability": "nonpayable",
      "type": "function"
    },
    {
      "inputs": [
        {
          "internalType": "address",
          "name": "from",
          "type": "address"
        },
        {
          "internalType": "address",
          "name": "to",
          "type": "address"
        },
        {
          "internalType": "uint256",
          "name": "tokenId",
          "type": "uint256"
        }
      ],
      "name": "safeTransferFrom",
      "outputs": [],
      "stateMutability": "nonpayable",
      "type": "function"
    },
    {
      "inputs": [
        {
          "internalType": "address",
          "name": "from",
          "type": "address"
        },
        {
          "internalType": "address",
          "name": "to",
          "type": "address"
        },
        {
          "internalType": "uint256",
          "name": "tokenId",
          "type": "uint256"
        },
        {
          "internalType": "bytes",
          "name": "_data",
          "type": "bytes"
        }
      ],
      "name": "safeTransferFrom",
      "outputs": [],
      "stateMutability": "nonpayable",
      "type": "function"
    },
    {
      "inputs": [
        {
          "internalType": "address",
          "name": "operator",
          "type": "address"
        },
        {
          "internalType": "bool",
          "name": "approved",
          "type": "bool"
        }
      ],
      "name": "setApprovalForAll",
      "outputs": [],
      "stateMutability": "nonpayable",
      "type": "function"
    },
    {
      "inputs": [],
      "name": "symbol",
      "outputs": [
        {
          "internalType": "string",
          "name": "",
          "type": "string"
        }
      ],
      "stateMutability": "view",
      "type": "function"
    },
    {
      "inputs": [
        {
          "internalType": "uint256",
          "name": "index",
          "type": "uint256"
        }
      ],
      "name": "tokenByIndex",
      "outputs": [
        {
          "internalType": "uint256",
          "name": "",
          "type": "uint256"
        }
      ],
      "stateMutability": "view",
      "type": "function"
    },
    {
      "inputs": [
        {
          "internalType": "address",
          "name": "owner",
          "type": "address"
        },
        {
          "internalType": "uint256",
          "name": "index",
          "type": "uint256"
        }
      ],
      "name": "tokenOfOwnerByIndex",
      "outputs": [
        {
          "internalType": "uint256",
          "name": "",
          "type": "uint256"
        }
      ],
      "stateMutability": "view",
      "type": "function"
    },
    {
      "inputs": [],
      "name": "totalSupply",
      "outputs": [
        {
          "internalType": "uint256",
          "name": "",
          "type": "uint256"
        }
      ],
      "stateMutability": "view",
      "type": "function"
    },
    {
      "inputs": [
        {
          "internalType": "address",
          "name": "from",
          "type": "address"
        },
        {
          "internalType": "address",
          "name": "to",
          "type": "address"
        },
        {
          "internalType": "uint256",
          "name": "tokenId",
          "type": "uint256"
        }
      ],
      "name": "transferFrom",
      "outputs": [],
      "stateMutability": "nonpayable",
      "type": "function"
    },
    {
      "inputs": [
        {
          "internalType": "address",
          "name": "newOwner",
          "type": "address"
        }
      ],
      "name": "transferOwnership",
      "outputs": [],
      "stateMutability": "nonpayable",
      "type": "function"
    },
    {
      "inputs": [],
      "name": "vrfCallbackGasLimit",
      "outputs": [
        {
          "internalType": "uint32",
          "name": "",
          "type": "uint32"
        }
      ],
      "stateMutability": "view",
      "type": "function"
    },
    {
      "inputs": [],
      "name": "vrfKeyHash",
      "outputs": [
        {
          "internalType": "bytes32",
          "name": "",
          "type": "bytes32"
        }
      ],
      "stateMutability": "view",
      "type": "function"
    },
    {
      "inputs": [],
      "name": "vrfSubscriptionId",
      "outputs": [
        {
          "internalType": "uint64",
          "name": "",
          "type": "uint64"
        }
      ],
      "stateMutability": "view",
      "type": "function"
    },
    {
      "stateMutability": "payable",
      "type": "receive"
    },
    {
      "inputs": [
        {
          "internalType": "uint64",
          "name": "newVrfSubscriptionId",
          "type": "uint64"
        },
        {
          "internalType": "bytes32",
          "name": "newVrfKeyHash",
          "type": "bytes32"
        },
        {
          "internalType": "uint32",
          "name": "newVrfCallbackGasLimit",
          "type": "uint32"
        }
      ],
      "name": "updateChainlinkParameters",
      "outputs": [],
      "stateMutability": "nonpayable",
      "type": "function"
    },
    {
      "inputs": [],
      "name": "contractURI",
      "outputs": [
        {
          "internalType": "string",
          "name": "",
          "type": "string"
        }
      ],
      "stateMutability": "view",
      "type": "function"
    },
    {
      "inputs": [
        {
          "internalType": "string",
          "name": "uri",
          "type": "string"
        }
      ],
      "name": "setContractURI",
      "outputs": [],
      "stateMutability": "nonpayable",
      "type": "function"
    },
    {
      "inputs": [
        {
          "internalType": "string",
          "name": "uri",
          "type": "string"
        }
      ],
      "name": "setBaseURI",
      "outputs": [],
      "stateMutability": "nonpayable",
      "type": "function"
    },
    {
      "inputs": [
        {
          "internalType": "uint256",
          "name": "tokenId",
          "type": "uint256"
        }
      ],
      "name": "tokenURI",
      "outputs": [
        {
          "internalType": "string",
          "name": "",
          "type": "string"
        }
      ],
      "stateMutability": "view",
      "type": "function"
    },
    {
      "inputs": [],
      "name": "pause",
      "outputs": [],
      "stateMutability": "nonpayable",
      "type": "function"
    },
    {
      "inputs": [],
      "name": "unpause",
      "outputs": [],
      "stateMutability": "nonpayable",
      "type": "function"
    },
    {
      "inputs": [
        {
          "internalType": "bool",
          "name": "active",
          "type": "bool"
        }
      ],
      "name": "updatePhaseOneStatus",
      "outputs": [],
      "stateMutability": "nonpayable",
      "type": "function"
    },
    {
      "inputs": [
        {
          "internalType": "bool",
          "name": "active",
          "type": "bool"
        }
      ],
      "name": "updatePhaseTwoStatus",
      "outputs": [],
      "stateMutability": "nonpayable",
      "type": "function"
    },
    {
      "inputs": [
        {
          "internalType": "bool",
          "name": "active",
          "type": "bool"
        }
      ],
      "name": "updatePublicMintStatus",
      "outputs": [],
      "stateMutability": "nonpayable",
      "type": "function"
    },
    {
      "inputs": [
        {
          "internalType": "bool",
          "name": "active",
          "type": "bool"
        }
      ],
      "name": "updateChainlinkVrfActive",
      "outputs": [],
      "stateMutability": "nonpayable",
      "type": "function"
    },
    {
      "inputs": [
        {
          "internalType": "uint256",
          "name": "newMintPrice",
          "type": "uint256"
        }
      ],
      "name": "updateMintPrice",
      "outputs": [],
      "stateMutability": "nonpayable",
      "type": "function"
    },
    {
      "inputs": [
        {
          "internalType": "string",
          "name": "message",
          "type": "string"
        },
        {
          "internalType": "uint256",
          "name": "index",
          "type": "uint256"
        }
      ],
      "name": "updateMsg",
      "outputs": [],
      "stateMutability": "nonpayable",
      "type": "function"
    },
    {
      "inputs": [
        {
          "internalType": "uint256",
          "name": "newCommissionDivisor",
          "type": "uint256"
        }
      ],
      "name": "updatePhaseTwoCommissionDivisor",
      "outputs": [],
      "stateMutability": "nonpayable",
      "type": "function"
    },
    {
      "inputs": [
        {
          "internalType": "address",
          "name": "inviteContractAddress",
          "type": "address"
        }
      ],
      "name": "updateInviteContractAddress",
      "outputs": [],
      "stateMutability": "nonpayable",
      "type": "function"
    },
    {
      "inputs": [
        {
          "internalType": "uint256",
          "name": "inviteId",
          "type": "uint256"
        }
      ],
      "name": "phaseOneInviteMint",
      "outputs": [],
      "stateMutability": "payable",
      "type": "function"
    },
    {
      "inputs": [
        {
          "internalType": "uint256",
          "name": "inviteId",
          "type": "uint256"
        }
      ],
      "name": "phaseTwoInviteMint",
      "outputs": [],
      "stateMutability": "payable",
      "type": "function"
    },
    {
      "inputs": [],
      "name": "publicMint",
      "outputs": [],
      "stateMutability": "payable",
      "type": "function"
    },
    {
      "inputs": [
        {
          "internalType": "uint256",
          "name": "code",
          "type": "uint256"
        }
      ],
      "name": "validateCallerLoyalty",
      "outputs": [
        {
          "internalType": "string",
          "name": "",
          "type": "string"
        }
      ],
      "stateMutability": "view",
      "type": "function"
    },
    {
      "inputs": [
        {
          "internalType": "address",
          "name": "to",
          "type": "address"
        }
      ],
      "name": "adminMintMask",
      "outputs": [],
      "stateMutability": "nonpayable",
      "type": "function"
    },
    {
      "inputs": [
        {
          "internalType": "address",
          "name": "to",
          "type": "address"
        }
      ],
      "name": "adminMintZeroMask",
      "outputs": [],
      "stateMutability": "nonpayable",
      "type": "function"
    },
    {
      "inputs": [
        {
          "internalType": "uint256",
          "name": "tokenId",
          "type": "uint256"
        }
      ],
      "name": "getTotalBondedTokensForMask",
      "outputs": [
        {
          "internalType": "uint256",
          "name": "",
          "type": "uint256"
        }
      ],
      "stateMutability": "view",
      "type": "function"
    },
    {
      "inputs": [
        {
          "internalType": "uint256",
          "name": "tokenId",
          "type": "uint256"
        }
      ],
      "name": "getRemainingBondedTokensForMask",
      "outputs": [
        {
          "internalType": "uint256",
          "name": "",
          "type": "uint256"
        }
      ],
      "stateMutability": "view",
      "type": "function"
    },
    {
      "inputs": [],
      "name": "getTotalBondedTokens",
      "outputs": [
        {
          "internalType": "uint256",
          "name": "",
          "type": "uint256"
        }
      ],
      "stateMutability": "view",
      "type": "function"
    },
    {
      "inputs": [
        {
          "internalType": "uint256",
          "name": "tokenId",
          "type": "uint256"
        },
        {
          "internalType": "uint256",
          "name": "tokenAmount",
          "type": "uint256"
        }
      ],
      "name": "unlockBondedTokensFromMask",
      "outputs": [],
      "stateMutability": "nonpayable",
      "type": "function"
    },
    {
      "inputs": [],
      "name": "withdrawBalance",
      "outputs": [],
      "stateMutability": "nonpayable",
      "type": "function"
    },
    {
      "inputs": [
        {
          "internalType": "uint256",
          "name": "tokens",
          "type": "uint256"
        }
      ],
      "name": "withdrawBalanceExceptFor",
      "outputs": [],
      "stateMutability": "nonpayable",
      "type": "function"
    },
    {
      "inputs": [
        {
          "internalType": "bytes4",
          "name": "interfaceId",
          "type": "bytes4"
        }
      ],
      "name": "supportsInterface",
      "outputs": [
        {
          "internalType": "bool",
          "name": "",
          "type": "bool"
        }
      ],
      "stateMutability": "view",
      "type": "function"
    }
  ],
  "bytecode": "0x60a06040527fd729dc84e21ae57ffb6be0053bf2b0668aa2aaf300a2a7b2ddf7dc0bb6e875a86012556013805463ffffffff1916620186a01790553480156200004757600080fd5b50604051620049bb380380620049bb8339810160408190526200006a916200043f565b604080518082018252600f81526e4445465947656e657369734d61736b60881b60208083019182528351808501909452600384526244474d60e81b908401528151859391620000bd91600091906200037c565b508051620000d39060019060208401906200037c565b5050600a805460ff1916905550620000eb336200027c565b6001600d5560601b6001600160601b0319166080526200010d600033620002ce565b620001397f65d7a28e3265b37a6474929f336521b332c1681b933f6cb9f3376673440d862a33620002ce565b620001657f9f2df0fed2c77648de5860a4cc508cd0818c85b8b8a1ab4ceeef8d981c8956a633620002ce565b601080546001600160a01b038481166001600160a01b0319928316179092556011805492841692909116919091179055601a602090815260017fb75ecc04ed35f89790e98640e901bda41eceff0cb896cf2765fb697680253750556103e87ff88cd8d612926ebb404e40725c01084b6e9b3ce0344cde068570342cbd448c615561157c7f4c287b3e2c2cb129ae3ba596d613d760b15affdac7242e12903c37a886ea1c4f55600360009081526109537f4ac83fca211703e3ddb90093cd219714e5e3715bf0b4fd15b0441390534a24e2556808ac7230489e800000601855601e805463ffffffff191662010000179055600a601955601b556200027490600e90620023c062000373821b17901c565b5050620004b3565b600c80546001600160a01b038381166001600160a01b0319831681179093556040519116919082907f8be0079c531659141344cd1fd0a4f28419497f9722a3daafe3b4186f6b6457e090600090a35050565b6000828152600b602090815260408083206001600160a01b038516845290915290205460ff166200036f576000828152600b602090815260408083206001600160a01b03851684529091529020805460ff191660011790556200032e3390565b6001600160a01b0316816001600160a01b0316837f2f8788117e7eff1d82e926ec794901d17c78024a50270940304540a733656f0d60405160405180910390a45b5050565b80546001019055565b8280546200038a9062000476565b90600052602060002090601f016020900481019282620003ae5760008555620003f9565b82601f10620003c957805160ff1916838001178555620003f9565b82800160010185558215620003f9579182015b82811115620003f9578251825591602001919060010190620003dc565b50620004079291506200040b565b5090565b5b808211156200040757600081556001016200040c565b80516001600160a01b03811681146200043a57600080fd5b919050565b6000806040838503121562000452578182fd5b6200045d8362000422565b91506200046d6020840162000422565b90509250929050565b600181811c908216806200048b57607f821691505b60208210811415620004ad57634e487b7160e01b600052602260045260246000fd5b50919050565b60805160601c6144e2620004d960003960008181611114015261115601526144e26000f3fe6080604052600436106103f25760003560e01c80635fd8c71011610208578063b67c25a311610118578063d5391393116100ab578063e8a3d4851161007a578063e8a3d48514610be4578063e985e9c514610bf9578063ed647d2114610c42578063f2fde38b14610c81578063fc7c981f14610ca157600080fd5b8063d539139314610b3c578063d547741f14610b70578063e63ab1e914610b90578063e693237114610bc457600080fd5b8063c87b56dd116100e7578063c87b56dd14610ac9578063d19115c414610ae9578063d374398014610b09578063d435003714610b1c57600080fd5b8063b67c25a314610a4a578063b88d4fde14610a6a578063bd84078e14610a8a578063bdf08d7114610aaa57600080fd5b80638bc5d9371161019b578063938e3d7b1161016a578063938e3d7b146109ac57806395d89b41146109cc578063a08539c7146109e1578063a217fddf14610a15578063a22cb46514610a2a57600080fd5b80638bc5d937146109215780638da5cb5b14610941578063900f52e81461095f57806391d148541461098c57600080fd5b806370a08231116101d757806370a08231146108b7578063715018a6146108d7578063832ac7f3146108ec5780638456cb591461090c57600080fd5b80635fd8c7101461084c5780636352211e146108615780636817c76c146108815780636f8f6c4a1461089757600080fd5b80632559454b11610303578063416c89b0116102965780634e4307f7116102655780634e4307f7146107be5780634ed8b3b3146107de5780634f6ccce7146107f457806355f804b3146108145780635c975abb1461083457600080fd5b8063416c89b01461073557806342842e0e1461074a57806343100e981461076a5780634931ea351461079e57600080fd5b806336568abe116102d257806336568abe146106ae578063376b2157146106ce5780633b7ed734146106ee5780633f4ba83a1461072057600080fd5b80632559454b1461064657806326092b83146106665780632f2ff15d1461066e5780632f745c591461068e57600080fd5b806318160ddd116103865780631f7003e0116103555780631f7003e0146105a35780631fe543e3146105c357806321ffc305146105e357806323b872dd146105f6578063248a9ca31461061657600080fd5b806318160ddd146105335780631d522a0e146105485780631df96c0b146105685780631f07a2ca1461058257600080fd5b8063041d443e116103c2578063041d443e1461049557806306fdde03146104b9578063081812fc146104db578063095ea7b31461051357600080fd5b8062728e46146103fe57806301fdef531461042057806301ffc9a714610440578063027a9a041461047557600080fd5b366103f957005b600080fd5b34801561040a57600080fd5b5061041e610419366004613d65565b610cc1565b005b34801561042c57600080fd5b5061041e61043b366004613d4b565b610cd2565b34801561044c57600080fd5b5061046061045b366004613da1565b610cf1565b60405190151581526020015b60405180910390f35b34801561048157600080fd5b5061041e610490366004613d4b565b610d02565b3480156104a157600080fd5b506104ab60125481565b60405190815260200161046c565b3480156104c557600080fd5b506104ce610d2a565b60405161046c91906141d8565b3480156104e757600080fd5b506104fb6104f6366004613d65565b610dbc565b6040516001600160a01b03909116815260200161046c565b34801561051f57600080fd5b5061041e61052e366004613d20565b610e49565b34801561053f57600080fd5b506008546104ab565b34801561055457600080fd5b5061041e610563366004613d65565b610f5f565b34801561057457600080fd5b50601e546104609060ff1681565b34801561058e57600080fd5b50601e54610460906301000000900460ff1681565b3480156105af57600080fd5b5061041e6105be366004613faf565b610fcd565b3480156105cf57600080fd5b5061041e6105de366004613efc565b611109565b61041e6105f1366004613d65565b611191565b34801561060257600080fd5b5061041e610611366004613c30565b6113ea565b34801561062257600080fd5b506104ab610631366004613d65565b6000908152600b602052604090206001015490565b34801561065257600080fd5b5061041e610661366004613d4b565b61141b565b61041e611441565b34801561067a57600080fd5b5061041e610689366004613d7d565b6114e8565b34801561069a57600080fd5b506104ab6106a9366004613d20565b61150d565b3480156106ba57600080fd5b5061041e6106c9366004613d7d565b6115a3565b3480156106da57600080fd5b5061041e6106e9366004613bdc565b61161d565b3480156106fa57600080fd5b5060135461070b9063ffffffff1681565b60405163ffffffff909116815260200161046c565b34801561072c57600080fd5b5061041e61179b565b34801561074157600080fd5b50601b546104ab565b34801561075657600080fd5b5061041e610765366004613c30565b6117d0565b34801561077657600080fd5b506104ab7f1362c86c8f1e6c8042100f6952f3877b35b36de0a39f8056dff06815a647623681565b3480156107aa57600080fd5b5061041e6107b9366004613d65565b6117eb565b3480156107ca57600080fd5b506015546104fb906001600160a01b031681565b3480156107ea57600080fd5b506104ab60195481565b34801561080057600080fd5b506104ab61080f366004613d65565b6118ad565b34801561082057600080fd5b5061041e61082f366004613df8565b61194e565b34801561084057600080fd5b50600a5460ff16610460565b34801561085857600080fd5b5061041e61196c565b34801561086d57600080fd5b506104fb61087c366004613d65565b611a27565b34801561088d57600080fd5b506104ab60185481565b3480156108a357600080fd5b506104ce6108b2366004613d65565b611a9e565b3480156108c357600080fd5b506104ab6108d2366004613bdc565b611b40565b3480156108e357600080fd5b5061041e611bc7565b3480156108f857600080fd5b5061041e610907366004613bdc565b611c2b565b34801561091857600080fd5b5061041e611c98565b34801561092d57600080fd5b5061041e61093c366004613d4b565b611cca565b34801561094d57600080fd5b50600c546001600160a01b03166104fb565b34801561096b57600080fd5b506104ab61097a366004613dd9565b601a6020526000908152604090205481565b34801561099857600080fd5b506104606109a7366004613d7d565b611cf4565b3480156109b857600080fd5b5061041e6109c7366004613df8565b611d1f565b3480156109d857600080fd5b506104ce611d3d565b3480156109ed57600080fd5b506104ab7f2d194408ffac6345de6befe9a457719637bce3a9018432c8b10de717d5843d6281565b348015610a2157600080fd5b506104ab600081565b348015610a3657600080fd5b5061041e610a45366004613cec565b611d4c565b348015610a5657600080fd5b50601e546104609062010000900460ff1681565b348015610a7657600080fd5b5061041e610a85366004613c70565b611d57565b348015610a9657600080fd5b506104ab610aa5366004613d65565b611d89565b348015610ab657600080fd5b50601e5461046090610100900460ff1681565b348015610ad557600080fd5b506104ce610ae4366004613d65565b611def565b348015610af557600080fd5b5061041e610b04366004613fd0565b611e84565b61041e610b17366004613d65565b611edc565b348015610b2857600080fd5b506104ab610b37366004613d65565b612203565b348015610b4857600080fd5b506104ab7f9f2df0fed2c77648de5860a4cc508cd0818c85b8b8a1ab4ceeef8d981c8956a681565b348015610b7c57600080fd5b5061041e610b8b366004613d7d565b61226c565b348015610b9c57600080fd5b506104ab7f65d7a28e3265b37a6474929f336521b332c1681b933f6cb9f3376673440d862a81565b348015610bd057600080fd5b5061041e610bdf366004613e2a565b612291565b348015610bf057600080fd5b506104ce6122bb565b348015610c0557600080fd5b50610460610c14366004613bf8565b6001600160a01b03918216600090815260056020908152604080832093909416825291909152205460ff1690565b348015610c4e57600080fd5b50601154610c6990600160a01b90046001600160401b031681565b6040516001600160401b03909116815260200161046c565b348015610c8d57600080fd5b5061041e610c9c366004613bdc565b6122ca565b348015610cad57600080fd5b5061041e610cbc366004613bdc565b612392565b6000610ccc816123c9565b50601855565b6000610cdd816123c9565b50601e805460ff1916911515919091179055565b6000610cfc826123d3565b92915050565b6000610d0d816123c9565b50601e8054911515620100000262ff000019909216919091179055565b606060008054610d39906143d5565b80601f0160208091040260200160405190810160405280929190818152602001828054610d65906143d5565b8015610db25780601f10610d8757610100808354040283529160200191610db2565b820191906000526020600020905b815481529060010190602001808311610d9557829003601f168201915b5050505050905090565b6000610dc7826123f8565b610e2d5760405162461bcd60e51b815260206004820152602c60248201527f4552433732313a20617070726f76656420717565727920666f72206e6f6e657860448201526b34b9ba32b73a103a37b5b2b760a11b60648201526084015b60405180910390fd5b506000908152600460205260409020546001600160a01b031690565b6000610e5482611a27565b9050806001600160a01b0316836001600160a01b03161415610ec25760405162461bcd60e51b815260206004820152602160248201527f4552433732313a20617070726f76616c20746f2063757272656e74206f776e656044820152603960f91b6064820152608401610e24565b336001600160a01b0382161480610ede5750610ede8133610c14565b610f505760405162461bcd60e51b815260206004820152603860248201527f4552433732313a20617070726f76652063616c6c6572206973206e6f74206f7760448201527f6e6572206e6f7220617070726f76656420666f7220616c6c00000000000000006064820152608401610e24565b610f5a8383612415565b505050565b6000610f6a816123c9565b81610fc75760405162461bcd60e51b815260206004820152602760248201527f44474d3a2043616e6e6f742073657420636f6d6d697373696f6e20646976697360448201526606f7220746f20360cc1b6064820152608401610e24565b50601955565b7f1362c86c8f1e6c8042100f6952f3877b35b36de0a39f8056dff06815a6476236610ff7816123c9565b611000836123f8565b6110605760405162461bcd60e51b815260206004820152602b60248201527f44474d3a20756e6c6f636b696e6720746f6b656e732066726f6d206e6f6e657860448201526a697374616e74206d61736b60a81b6064820152608401610e24565b6000838152601c602052604090206001015482106110de5760405162461bcd60e51b815260206004820152603560248201527f44474d3a2063616e6e6f7420756e6c6f636b206d6f726520746f6b656e73207460448201527468616e2072656d61696e696e67206f6e206d61736b60581b6064820152608401610e24565b6000838152601c6020526040812060010180548492906110ff90849061437b565b9091555050505050565b336001600160a01b037f000000000000000000000000000000000000000000000000000000000000000016146111835760405163073e64fd60e21b81523360048201526001600160a01b037f0000000000000000000000000000000000000000000000000000000000000000166024820152604401610e24565b61118d8282612483565b5050565b600a5460ff16156111b45760405162461bcd60e51b8152600401610e2490614285565b601e5460ff166112065760405162461bcd60e51b815260206004820152601760248201527f44474d3a2050686173652031206e6f74206163746976650000000000000000006044820152606401610e24565b6002600d5414156112595760405162461bcd60e51b815260206004820152601f60248201527f5265656e7472616e637947756172643a207265656e7472616e742063616c6c006044820152606401610e24565b6002600d55601854341461127f5760405162461bcd60e51b8152600401610e24906141eb565b60155460405163b6e76def60e01b8152600481018390526000916001600160a01b03169063b6e76def9060240160606040518083038186803b1580156112c457600080fd5b505afa1580156112d8573d6000803e3d6000fd5b505050506040513d601f19601f820116820180604052508101906112fc9190613e6c565b90506000816040015160ff16146113745760405162461bcd60e51b815260206004820152603660248201527f44474d3a2063616e6e6f742075736520696e766974652066726f6e20616e6f746044820152756865722073657269657320666f72207068617365203160501b6064820152608401610e24565b601554604051631658b0cd60e21b8152600481018490523360248201526001600160a01b0390911690635962c33490604401600060405180830381600087803b1580156113c057600080fd5b505af11580156113d4573d6000803e3d6000fd5b505050506113e13361249c565b50506001600d55565b6113f433826125d3565b6114105760405162461bcd60e51b8152600401610e24906142af565b610f5a8383836126bd565b6000611426816123c9565b50601e80549115156101000261ff0019909216919091179055565b600a5460ff16156114645760405162461bcd60e51b8152600401610e2490614285565b601e5462010000900460ff166114bc5760405162461bcd60e51b815260206004820152601b60248201527f44474d3a205075626c6963206d696e74206e6f742061637469766500000000006044820152606401610e24565b60185434146114dd5760405162461bcd60e51b8152600401610e24906141eb565b6114e63361249c565b565b6000828152600b6020526040902060010154611503816123c9565b610f5a8383612864565b600061151883611b40565b821061157a5760405162461bcd60e51b815260206004820152602b60248201527f455243373231456e756d657261626c653a206f776e657220696e646578206f7560448201526a74206f6620626f756e647360a81b6064820152608401610e24565b506001600160a01b03919091166000908152600660209081526040808320938352929052205490565b6001600160a01b03811633146116135760405162461bcd60e51b815260206004820152602f60248201527f416363657373436f6e74726f6c3a2063616e206f6e6c792072656e6f756e636560448201526e103937b632b9903337b91039b2b63360891b6064820152608401610e24565b61118d82826128ea565b7f9f2df0fed2c77648de5860a4cc508cd0818c85b8b8a1ab4ceeef8d981c8956a6611647816123c9565b600061165660c86122b861437b565b600f546116639190614330565b905061167260c86122b861437b565b8110156116c15760405162461bcd60e51b815260206004820152601c60248201527f44474d3a20616c6c207075626c6963206d61736b73206d696e746564000000006044820152606401610e24565b6116cf600f80546001019055565b6116d98382612951565b601e546301000000900460ff16156116f457610f5a8161296b565b60408051600280825260608201835260009260208301908036833701905050905061171e82612a44565b8160008151811061173f57634e487b7160e01b600052603260045260246000fd5b602090810291909101015261175e61175983613b7f61435c565b612a44565b8160018151811061177f57634e487b7160e01b600052603260045260246000fd5b6020026020010181815250506117958282612a7a565b50505050565b7f65d7a28e3265b37a6474929f336521b332c1681b933f6cb9f3376673440d862a6117c5816123c9565b6117cd612f80565b50565b610f5a83838360405180602001604052806000815250611d57565b7f2d194408ffac6345de6befe9a457719637bce3a9018432c8b10de717d5843d62611815816123c9565b600033611822844761437b565b604051600081818185875af1925050503d806000811461185e576040519150601f19603f3d011682016040523d82523d6000602084013e611863565b606091505b5050905080610f5a5760405162461bcd60e51b81526020600482015260166024820152751111d34e8815da5d1a191c985dd85b0819985a5b195960521b6044820152606401610e24565b60006118b860085490565b821061191b5760405162461bcd60e51b815260206004820152602c60248201527f455243373231456e756d657261626c653a20676c6f62616c20696e646578206f60448201526b7574206f6620626f756e647360a01b6064820152608401610e24565b6008828154811061193c57634e487b7160e01b600052603260045260246000fd5b90600052602060002001549050919050565b6000611959816123c9565b8151610f5a906016906020850190613ab8565b7f2d194408ffac6345de6befe9a457719637bce3a9018432c8b10de717d5843d62611996816123c9565b604051600090339047908381818185875af1925050503d80600081146119d8576040519150601f19603f3d011682016040523d82523d6000602084013e6119dd565b606091505b505090508061118d5760405162461bcd60e51b81526020600482015260166024820152751111d34e8815da5d1a191c985dd85b0819985a5b195960521b6044820152606401610e24565b6000818152600260205260408120546001600160a01b031680610cfc5760405162461bcd60e51b815260206004820152602960248201527f4552433732313a206f776e657220717565727920666f72206e6f6e657869737460448201526832b73a103a37b5b2b760b91b6064820152608401610e24565b6000818152601460205260409020805460609190611abb906143d5565b80601f0160208091040260200160405190810160405280929190818152602001828054611ae7906143d5565b8015611b345780601f10611b0957610100808354040283529160200191611b34565b820191906000526020600020905b815481529060010190602001808311611b1757829003601f168201915b50505050509050919050565b60006001600160a01b038216611bab5760405162461bcd60e51b815260206004820152602a60248201527f4552433732313a2062616c616e636520717565727920666f7220746865207a65604482015269726f206164647265737360b01b6064820152608401610e24565b506001600160a01b031660009081526003602052604090205490565b600c546001600160a01b03163314611c215760405162461bcd60e51b815260206004820181905260248201527f4f776e61626c653a2063616c6c6572206973206e6f7420746865206f776e65726044820152606401610e24565b6114e66000613013565b6000611c36816123c9565b611c4060006123f8565b15611c8d5760405162461bcd60e51b815260206004820152601860248201527f44474d3a207a65726f20616c7265616479206d696e74656400000000000000006044820152606401610e24565b61118d826000612951565b7f65d7a28e3265b37a6474929f336521b332c1681b933f6cb9f3376673440d862a611cc2816123c9565b6117cd613065565b6000611cd5816123c9565b50601e805491151563010000000263ff00000019909216919091179055565b6000918252600b602090815260408084206001600160a01b0393909316845291905290205460ff1690565b6000611d2a816123c9565b8151610f5a906017906020850190613ab8565b606060018054610d39906143d5565b61118d3383836130bd565b611d6133836125d3565b611d7d5760405162461bcd60e51b8152600401610e24906142af565b6117958484848461318c565b6000611d94826123f8565b611ddc5760405162461bcd60e51b81526020600482015260196024820152781111d34e881d1bdad95b88191bd95cc81b9bdd08195e1a5cdd603a1b6044820152606401610e24565b506000908152601c602052604090205490565b6060611dfa826123f8565b611e525760405162461bcd60e51b8152602060048201526024808201527f44474d3a2055524920717565727920666f72206e6f6e6578697374656e74207460448201526337b5b2b760e11b6064820152608401610e24565b6016611e5d836131bf565b604051602001611e6e92919061406c565b6040516020818303038152906040529050919050565b6000611e8f816123c9565b50601180546001600160401b03909416600160a01b0267ffffffffffffffff60a01b19909416939093179092556012556013805463ffffffff90921663ffffffff19909216919091179055565b600a5460ff1615611eff5760405162461bcd60e51b8152600401610e2490614285565b601e54610100900460ff16611f565760405162461bcd60e51b815260206004820152601760248201527f44474d3a2050686173652032206e6f74206163746976650000000000000000006044820152606401610e24565b6002600d541415611fa95760405162461bcd60e51b815260206004820152601f60248201527f5265656e7472616e637947756172643a207265656e7472616e742063616c6c006044820152606401610e24565b6002600d556018543414611fcf5760405162461bcd60e51b8152600401610e24906141eb565b60155460405163b6e76def60e01b8152600481018390526000916001600160a01b03169063b6e76def9060240160606040518083038186803b15801561201457600080fd5b505afa158015612028573d6000803e3d6000fd5b505050506040513d601f19601f8201168201806040525081019061204c9190613e6c565b90506002816040015160ff16146120cb5760405162461bcd60e51b815260206004820152603860248201527f44474d3a2063616e6e6f742075736520696e766974652066726f6e20616e6f7460448201527f6865722073657269657320666f722070686173652074776f00000000000000006064820152608401610e24565b601554604051631658b0cd60e21b8152600481018490523360248201526001600160a01b0390911690635962c33490604401600060405180830381600087803b15801561211757600080fd5b505af115801561212b573d6000803e3d6000fd5b505050506121383361249c565b80516019546000916001600160a01b0316906121549034614348565b604051600081818185875af1925050503d8060008114612190576040519150601f19603f3d011682016040523d82523d6000602084013e612195565b606091505b50509050806121f95760405162461bcd60e51b815260206004820152602a60248201527f4445465947656e657369734d61736b3a20636f6d6d697373696f6e207061796d604482015269195b9d0819985a5b195960b21b6064820152608401610e24565b50506001600d5550565b600061220e826123f8565b6122565760405162461bcd60e51b81526020600482015260196024820152781111d34e881d1bdad95b88191bd95cc81b9bdd08195e1a5cdd603a1b6044820152606401610e24565b506000908152601c602052604090206001015490565b6000828152600b6020526040902060010154612287816123c9565b610f5a83836128ea565b600061229c816123c9565b6000828152601460209081526040909120845161179592860190613ab8565b606060178054610d39906143d5565b600c546001600160a01b031633146123245760405162461bcd60e51b815260206004820181905260248201527f4f776e61626c653a2063616c6c6572206973206e6f7420746865206f776e65726044820152606401610e24565b6001600160a01b0381166123895760405162461bcd60e51b815260206004820152602660248201527f4f776e61626c653a206e6577206f776e657220697320746865207a65726f206160448201526564647265737360d01b6064820152608401610e24565b6117cd81613013565b600061239d816123c9565b50601580546001600160a01b0319166001600160a01b0392909216919091179055565b80546001019055565b6117cd81336132d8565b60006001600160e01b03198216637965db0b60e01b1480610cfc5750610cfc8261333c565b6000908152600260205260409020546001600160a01b0316151590565b600081815260046020526040902080546001600160a01b0319166001600160a01b038416908117909155819061244a82611a27565b6001600160a01b03167f8c5be1e5ebec7d5bd14f71427d1e84f3dd0314c0f7b2291e5b200ac8c7c3b92560405160405180910390a45050565b6000828152601d602052604090205461118d9082612a7a565b60006124a7600e5490565b90506124b660c86122b861437b565b81106125045760405162461bcd60e51b815260206004820152601c60248201527f44474d3a20616c6c207075626c6963206d61736b73206d696e746564000000006044820152606401610e24565b612512600e80546001019055565b61251c8282612951565b601e546301000000900460ff16156125375761118d8161296b565b60408051600280825260608201835260009260208301908036833701905050905061256182612a44565b8160008151811061258257634e487b7160e01b600052603260045260246000fd5b602090810291909101015261259c61175983613b7f61435c565b816001815181106125bd57634e487b7160e01b600052603260045260246000fd5b602002602001018181525050610f5a8282612a7a565b60006125de826123f8565b61263f5760405162461bcd60e51b815260206004820152602c60248201527f4552433732313a206f70657261746f7220717565727920666f72206e6f6e657860448201526b34b9ba32b73a103a37b5b2b760a11b6064820152608401610e24565b600061264a83611a27565b9050806001600160a01b0316846001600160a01b0316148061269157506001600160a01b0380821660009081526005602090815260408083209388168352929052205460ff165b806126b55750836001600160a01b03166126aa84610dbc565b6001600160a01b0316145b949350505050565b826001600160a01b03166126d082611a27565b6001600160a01b0316146127345760405162461bcd60e51b815260206004820152602560248201527f4552433732313a207472616e736665722066726f6d20696e636f72726563742060448201526437bbb732b960d91b6064820152608401610e24565b6001600160a01b0382166127965760405162461bcd60e51b8152602060048201526024808201527f4552433732313a207472616e7366657220746f20746865207a65726f206164646044820152637265737360e01b6064820152608401610e24565b6127a1838383613361565b6127ac600082612415565b6001600160a01b03831660009081526003602052604081208054600192906127d590849061437b565b90915550506001600160a01b0382166000908152600360205260408120805460019290612803908490614330565b909155505060008181526002602052604080822080546001600160a01b0319166001600160a01b0386811691821790925591518493918716917fddf252ad1be2c89b69c2b068fc378daa952ba7f163c4a11628f55a4df523b3ef91a4505050565b61286e8282611cf4565b61118d576000828152600b602090815260408083206001600160a01b03851684529091529020805460ff191660011790556128a63390565b6001600160a01b0316816001600160a01b0316837f2f8788117e7eff1d82e926ec794901d17c78024a50270940304540a733656f0d60405160405180910390a45050565b6128f48282611cf4565b1561118d576000828152600b602090815260408083206001600160a01b0385168085529252808320805460ff1916905551339285917ff6391f5c32d9c69d2a47ea670b442974b53935d1edc7fd64eb21e047a839171b9190a45050565b61118d82826040518060200160405280600081525061338f565b6010546012546011546013546040516305d3b1d360e41b81526004810193909352600160a01b9091046001600160401b0316602483015260036044830181905263ffffffff9091166064830152600260848301819052909290916000916001600160a01b031690635d3b1d309060a401602060405180830381600087803b1580156129f557600080fd5b505af1158015612a09573d6000803e3d6000fd5b505050506040513d601f19601f82011682018060405250810190612a2d9190613ee4565b6000908152601d6020526040902093909355505050565b60408051446020808301919091524282840152606080830194909452825180830390940184526080909101909152815191012090565b60008052601a6020527fb75ecc04ed35f89790e98640e901bda41eceff0cb896cf2765fb6976802537505415801590612abe5750612abb60c86122b861437b565b82105b15612bbe57600082612ad360c86122b861437b565b612add919061437b565b82600081518110612afe57634e487b7160e01b600052603260045260246000fd5b6020026020010151612b10919061442b565b1590508015612bbc576000838152601c602090815260408220620186a08082556001909101819055828052601a9091527fb75ecc04ed35f89790e98640e901bda41eceff0cb896cf2765fb697680253750829055601b805491929091612b77908490614330565b909155505060408051848152620186a060208201527f0b017f50766424850119e7bfc72de8fe44a641dc0a242af611184c0b4d39b03d910160405180910390a1505050565b505b60006103e8831015612c1e576000600283600081518110612bef57634e487b7160e01b600052603260045260246000fd5b6020026020010151612c01919061442b565b1590508015612c135760019150612c18565b600291505b50612d65565b601a6020527f4ac83fca211703e3ddb90093cd219714e5e3715bf0b4fd15b0441390534a24e2547f4c287b3e2c2cb129ae3ba596d613d760b15affdac7242e12903c37a886ea1c4f54600160009081527ff88cd8d612926ebb404e40725c01084b6e9b3ce0344cde068570342cbd448c6154909291612c9c91614330565b612ca69190614330565b905060008184600081518110612ccc57634e487b7160e01b600052603260045260246000fd5b6020026020010151612cde919061442b565b6001600052601a6020527ff88cd8d612926ebb404e40725c01084b6e9b3ce0344cde068570342cbd448c61549091508110612d5d576003600052601a6020527f4ac83fca211703e3ddb90093cd219714e5e3715bf0b4fd15b0441390534a24e254612d49908361437b565b8111612d56576002612d60565b6003612d60565b60015b925050505b60006001826003811115612d8957634e487b7160e01b600052602160045260246000fd5b1415612de957600061019184600181518110612db557634e487b7160e01b600052603260045260246000fd5b6020026020010151612dc7919061442b565b905060c8612dd7826103e8614330565b612de1919061437b565b915050612eab565b6002826003811115612e0b57634e487b7160e01b600052602160045260246000fd5b1415612e57576000602984600181518110612e3657634e487b7160e01b600052603260045260246000fd5b6020026020010151612e48919061442b565b90506014612dd7826064614330565b6000600584600181518110612e7c57634e487b7160e01b600052603260045260246000fd5b6020026020010151612e8e919061442b565b90506002612e9d82600a614330565b612ea7919061437b565b9150505b6000848152601c60205260408120828155600101829055601b8054839290612ed4908490614330565b9091555060019050601a6000846003811115612f0057634e487b7160e01b600052602160045260246000fd5b6003811115612f1f57634e487b7160e01b600052602160045260246000fd5b81526020019081526020016000206000828254612f3c919061437b565b909155505060408051858152602081018390527f0b017f50766424850119e7bfc72de8fe44a641dc0a242af611184c0b4d39b03d910160405180910390a150505050565b600a5460ff16612fc95760405162461bcd60e51b815260206004820152601460248201527314185d5cd8589b194e881b9bdd081c185d5cd95960621b6044820152606401610e24565b600a805460ff191690557f5db9ee0a495bf2e6ff9c91a7834c1ba4fdd244a5e8aa4e537bd38aeae4b073aa335b6040516001600160a01b03909116815260200160405180910390a1565b600c80546001600160a01b038381166001600160a01b0319831681179093556040519116919082907f8be0079c531659141344cd1fd0a4f28419497f9722a3daafe3b4186f6b6457e090600090a35050565b600a5460ff16156130885760405162461bcd60e51b8152600401610e2490614285565b600a805460ff191660011790557f62e78cea01bee320cd4e420270b5ea74000d11b0c9f74754ebdbfc544b05a258612ff63390565b816001600160a01b0316836001600160a01b0316141561311f5760405162461bcd60e51b815260206004820152601960248201527f4552433732313a20617070726f766520746f2063616c6c6572000000000000006044820152606401610e24565b6001600160a01b03838116600081815260056020908152604080832094871680845294825291829020805460ff191686151590811790915591519182527f17307eab39ab6107e8899845ad3d59bd9653f200f220920489ca2b5937696c31910160405180910390a3505050565b6131978484846126bd565b6131a3848484846133c2565b6117955760405162461bcd60e51b8152600401610e2490614233565b6060816131e35750506040805180820190915260018152600360fc1b602082015290565b8160005b811561320d57806131f781614410565b91506132069050600a83614348565b91506131e7565b6000816001600160401b0381111561323557634e487b7160e01b600052604160045260246000fd5b6040519080825280601f01601f19166020018201604052801561325f576020820181803683370190505b5090505b84156126b55761327460018361437b565b9150613281600a8661442b565b61328c906030614330565b60f81b8183815181106132af57634e487b7160e01b600052603260045260246000fd5b60200101906001600160f81b031916908160001a9053506132d1600a86614348565b9450613263565b6132e28282611cf4565b61118d576132fa816001600160a01b031660146134cf565b6133058360206134cf565b604051602001613316929190614126565b60408051601f198184030181529082905262461bcd60e51b8252610e24916004016141d8565b60006001600160e01b0319821663780e9d6360e01b1480610cfc5750610cfc826136b7565b600a5460ff16156133845760405162461bcd60e51b8152600401610e2490614285565b610f5a838383613707565b61339983836137bf565b6133a660008484846133c2565b610f5a5760405162461bcd60e51b8152600401610e2490614233565b60006001600160a01b0384163b156134c457604051630a85bd0160e11b81526001600160a01b0385169063150b7a029061340690339089908890889060040161419b565b602060405180830381600087803b15801561342057600080fd5b505af1925050508015613450575060408051601f3d908101601f1916820190925261344d91810190613dbd565b60015b6134aa573d80801561347e576040519150601f19603f3d011682016040523d82523d6000602084013e613483565b606091505b5080516134a25760405162461bcd60e51b8152600401610e2490614233565b805181602001fd5b6001600160e01b031916630a85bd0160e11b1490506126b5565b506001949350505050565b606060006134de83600261435c565b6134e9906002614330565b6001600160401b0381111561350e57634e487b7160e01b600052604160045260246000fd5b6040519080825280601f01601f191660200182016040528015613538576020820181803683370190505b509050600360fc1b8160008151811061356157634e487b7160e01b600052603260045260246000fd5b60200101906001600160f81b031916908160001a905350600f60fb1b8160018151811061359e57634e487b7160e01b600052603260045260246000fd5b60200101906001600160f81b031916908160001a90535060006135c284600261435c565b6135cd906001614330565b90505b6001811115613661576f181899199a1a9b1b9c1cb0b131b232b360811b85600f166010811061360f57634e487b7160e01b600052603260045260246000fd5b1a60f81b82828151811061363357634e487b7160e01b600052603260045260246000fd5b60200101906001600160f81b031916908160001a90535060049490941c9361365a816143be565b90506135d0565b5083156136b05760405162461bcd60e51b815260206004820181905260248201527f537472696e67733a20686578206c656e67746820696e73756666696369656e746044820152606401610e24565b9392505050565b60006001600160e01b031982166380ac58cd60e01b14806136e857506001600160e01b03198216635b5e139f60e01b145b80610cfc57506301ffc9a760e01b6001600160e01b0319831614610cfc565b6001600160a01b0383166137625761375d81600880546000838152600960205260408120829055600182018355919091527ff3f7a9fe364faab93b216da50a3214154f22a0a2b415b23a84c8169e8b636ee30155565b613785565b816001600160a01b0316836001600160a01b0316146137855761378583826138fe565b6001600160a01b03821661379c57610f5a8161399b565b826001600160a01b0316826001600160a01b031614610f5a57610f5a8282613a74565b6001600160a01b0382166138155760405162461bcd60e51b815260206004820181905260248201527f4552433732313a206d696e7420746f20746865207a65726f20616464726573736044820152606401610e24565b61381e816123f8565b1561386b5760405162461bcd60e51b815260206004820152601c60248201527f4552433732313a20746f6b656e20616c7265616479206d696e746564000000006044820152606401610e24565b61387760008383613361565b6001600160a01b03821660009081526003602052604081208054600192906138a0908490614330565b909155505060008181526002602052604080822080546001600160a01b0319166001600160a01b03861690811790915590518392907fddf252ad1be2c89b69c2b068fc378daa952ba7f163c4a11628f55a4df523b3ef908290a45050565b6000600161390b84611b40565b613915919061437b565b600083815260076020526040902054909150808214613968576001600160a01b03841660009081526006602090815260408083208584528252808320548484528184208190558352600790915290208190555b5060009182526007602090815260408084208490556001600160a01b039094168352600681528383209183525290812055565b6008546000906139ad9060019061437b565b600083815260096020526040812054600880549394509092849081106139e357634e487b7160e01b600052603260045260246000fd5b906000526020600020015490508060088381548110613a1257634e487b7160e01b600052603260045260246000fd5b6000918252602080832090910192909255828152600990915260408082208490558582528120556008805480613a5857634e487b7160e01b600052603160045260246000fd5b6001900381819060005260206000200160009055905550505050565b6000613a7f83611b40565b6001600160a01b039093166000908152600660209081526040808320868452825280832085905593825260079052919091209190915550565b828054613ac4906143d5565b90600052602060002090601f016020900481019282613ae65760008555613b2c565b82601f10613aff57805160ff1916838001178555613b2c565b82800160010185558215613b2c579182015b82811115613b2c578251825591602001919060010190613b11565b50613b38929150613b3c565b5090565b5b80821115613b385760008155600101613b3d565b60006001600160401b03831115613b6a57613b6a61446b565b613b7d601f8401601f1916602001614300565b9050828152838383011115613b9157600080fd5b828260208301376000602084830101529392505050565b80358015158114613bb857600080fd5b919050565b600082601f830112613bcd578081fd5b6136b083833560208501613b51565b600060208284031215613bed578081fd5b81356136b081614481565b60008060408385031215613c0a578081fd5b8235613c1581614481565b91506020830135613c2581614481565b809150509250929050565b600080600060608486031215613c44578081fd5b8335613c4f81614481565b92506020840135613c5f81614481565b929592945050506040919091013590565b60008060008060808587031215613c85578081fd5b8435613c9081614481565b93506020850135613ca081614481565b92506040850135915060608501356001600160401b03811115613cc1578182fd5b8501601f81018713613cd1578182fd5b613ce087823560208401613b51565b91505092959194509250565b60008060408385031215613cfe578182fd5b8235613d0981614481565b9150613d1760208401613ba8565b90509250929050565b60008060408385031215613d32578182fd5b8235613d3d81614481565b946020939093013593505050565b600060208284031215613d5c578081fd5b6136b082613ba8565b600060208284031215613d76578081fd5b5035919050565b60008060408385031215613d8f578182fd5b823591506020830135613c2581614481565b600060208284031215613db2578081fd5b81356136b081614496565b600060208284031215613dce578081fd5b81516136b081614496565b600060208284031215613dea578081fd5b8135600481106136b0578182fd5b600060208284031215613e09578081fd5b81356001600160401b03811115613e1e578182fd5b6126b584828501613bbd565b60008060408385031215613e3c578182fd5b82356001600160401b03811115613e51578283fd5b613e5d85828601613bbd565b95602094909401359450505050565b600060608284031215613e7d578081fd5b604051606081018181106001600160401b0382111715613e9f57613e9f61446b565b6040528251613ead81614481565b8152602083015160028110613ec0578283fd5b6020820152604083015160ff81168114613ed8578283fd5b60408201529392505050565b600060208284031215613ef5578081fd5b5051919050565b60008060408385031215613f0e578182fd5b823591506020808401356001600160401b0380821115613f2c578384fd5b818601915086601f830112613f3f578384fd5b813581811115613f5157613f5161446b565b8060051b9150613f62848301614300565b8181528481019084860184860187018b1015613f7c578788fd5b8795505b83861015613f9e578035835260019590950194918601918601613f80565b508096505050505050509250929050565b60008060408385031215613fc1578182fd5b50508035926020909101359150565b600080600060608486031215613fe4578081fd5b83356001600160401b0381168114613ffa578182fd5b925060208401359150604084013563ffffffff81168114614019578182fd5b809150509250925092565b6000815180845261403c816020860160208601614392565b601f01601f19169290920160200192915050565b60008151614062818560208601614392565b9290920192915050565b600080845482600182811c91508083168061408857607f831692505b60208084108214156140a857634e487b7160e01b87526022600452602487fd5b8180156140bc57600181146140cd576140f9565b60ff198616895284890196506140f9565b60008b815260209020885b868110156140f15781548b8201529085019083016140d8565b505084890196505b50505050505061411d61410c8286614050565b64173539b7b760d91b815260050190565b95945050505050565b7f416363657373436f6e74726f6c3a206163636f756e742000000000000000000081526000835161415e816017850160208801614392565b7001034b99036b4b9b9b4b733903937b6329607d1b601791840191820152835161418f816028840160208801614392565b01602801949350505050565b6001600160a01b03858116825284166020820152604081018390526080606082018190526000906141ce90830184614024565b9695505050505050565b6020815260006136b06020830184614024565b60208082526028908201527f44474d3a20696e636f727265637420746f6b656e20616d6f756e742073656e74604082015267081d1bc81b5a5b9d60c21b606082015260800190565b60208082526032908201527f4552433732313a207472616e7366657220746f206e6f6e20455243373231526560408201527131b2b4bb32b91034b6b83632b6b2b73a32b960711b606082015260800190565b60208082526010908201526f14185d5cd8589b194e881c185d5cd95960821b604082015260600190565b60208082526031908201527f4552433732313a207472616e736665722063616c6c6572206973206e6f74206f6040820152701ddb995c881b9bdc88185c1c1c9bdd9959607a1b606082015260800190565b604051601f8201601f191681016001600160401b03811182821017156143285761432861446b565b604052919050565b600082198211156143435761434361443f565b500190565b60008261435757614357614455565b500490565b60008160001904831182151516156143765761437661443f565b500290565b60008282101561438d5761438d61443f565b500390565b60005b838110156143ad578181015183820152602001614395565b838111156117955750506000910152565b6000816143cd576143cd61443f565b506000190190565b600181811c908216806143e957607f821691505b6020821081141561440a57634e487b7160e01b600052602260045260246000fd5b50919050565b60006000198214156144245761442461443f565b5060010190565b60008261443a5761443a614455565b500690565b634e487b7160e01b600052601160045260246000fd5b634e487b7160e01b600052601260045260246000fd5b634e487b7160e01b600052604160045260246000fd5b6001600160a01b03811681146117cd57600080fd5b6001600160e01b0319811681146117cd57600080fdfea264697066735822122035fcea23509d47a70acf98f28fb3f4d6dde5989568f754434bb57e30c110fbd464736f6c63430008040033",
  "immutableReferences": {
    "10": [
      {
        "length": 32,
        "start": 4372
      },
      {
        "length": 32,
        "start": 4438
      }
    ]
  },
  "source": "// SPDX-License-Identifier: MIT\npragma solidity ^0.8.4;\n\nimport \"@openzeppelin/contracts/token/ERC721/ERC721.sol\";\nimport \"@openzeppelin/contracts/token/ERC721/extensions/ERC721Enumerable.sol\";\nimport \"@openzeppelin/contracts/security/Pausable.sol\";\nimport \"@openzeppelin/contracts/security/ReentrancyGuard.sol\";\nimport \"@openzeppelin/contracts/access/AccessControl.sol\";\nimport \"@openzeppelin/contracts/access/Ownable.sol\";\nimport \"@openzeppelin/contracts/utils/Counters.sol\";\n\nimport \"@chainlink/contracts/src/v0.8/interfaces/LinkTokenInterface.sol\";\nimport \"@chainlink/contracts/src/v0.8/interfaces/VRFCoordinatorV2Interface.sol\";\nimport \"@chainlink/contracts/src/v0.8/VRFConsumerBaseV2.sol\";\n\nimport \"./InviteTypes.sol\";\nimport \"./IDEFYGenesisInvite.sol\";\n\n// ______ _____________   __\n// |  _  \\  ___|  ___\\ \\ / /\n// | | | | |__ | |_   \\ V /\n// | | | |  __||  _|   \\ /\n// | |/ /| |___| |     | |\n// |___/ \\____/\\_|     \\_/\n//\n// WELCOME TO THE REVOLUTION\n\n// Reading our smart contract hey?  There's a hidden message somewhere on this contract, see if you can find it... ;)\n\ncontract DEFYGenesisMask is ERC721, ERC721Enumerable, Pausable, AccessControl, Ownable, InviteTypes, ReentrancyGuard, VRFConsumerBaseV2 {\n    using Counters for Counters.Counter;\n\n    // Roles\n    bytes32 public constant PAUSER_ROLE = keccak256(\"PAUSER_ROLE\");\n    bytes32 public constant MINTER_ROLE = keccak256(\"MINTER_ROLE\");\n    bytes32 public constant TOKEN_UNLOCKER_ROLE = keccak256(\"TOKEN_UNLOCKER_ROLE\");\n    bytes32 public constant BALANCE_WITHDRAWER_ROLE = keccak256(\"BALANCE_WITHDRAWER_ROLE\");\n\n    // Counters for number of public tokens minted and DEFY admin tokens minted\n    Counters.Counter private _tokenIdCounter;\n    Counters.Counter private _defyTokenIdCounter;\n\n    // Maximum masks to be minted on this contract\n    uint256 private constant MAX_MASKS = 8888;\n\n    // Number of masks reserved for DEFY to distribute as prizes\n    uint256 private constant DEFY_RESERVED_MASKS = 200;\n\n    // Invite series ids\n    uint256 private constant PHASE_ONE_INVITE_SERIES_ID = 0;\n    uint256 private constant PHASE_TWO_INVITE_SERIES_ID = 2;\n\n    uint256 private constant PRIZE_MASK_VALUE = 100000;\n    uint256 private constant ELITE_MASK_MID_VALUE = 1000;\n    uint256 private constant MID_MASK_MID_VALUE = 100;\n    uint256 private constant LOW_MASK_MID_VALUE = 10;\n\n    // ChainlinkVRF config values.  Default values set for Polygon mainnet\n    VRFCoordinatorV2Interface VRFCOORDINATOR;\n    LinkTokenInterface LINKTOKEN;\n\n    uint64 public vrfSubscriptionId;\n    bytes32 public vrfKeyHash = 0xd729dc84e21ae57ffb6be0053bf2b0668aa2aaf300a2a7b2ddf7dc0bb6e875a8;\n    uint32 public vrfCallbackGasLimit = 100000;\n\n    // Types of masks for the purpose of rewards\n    // PRIZE_MASK gets 100,000 tokens ($10k worth)\n    // ELITE_MASK gets 800-1,200 ($80 - $120 worth)\n    // MID_MASK gets 80-120 tokens ($8 - $12 worth)\n    // LOW_MASK gets 8-12 tokens ($0.80 - $1.20 worth)\n    enum MaskType {\n      PRIZE_MASK,\n      ELITE_MASK,\n      MID_MASK,\n      LOW_MASK\n    }\n\n    mapping(uint256 => string) private _kha0sMsgs;\n\n    // On-chain metadata, storing the number of bonded tokens and remaining bonded tokens\n    struct DEFYGenesisMaskMetadata {\n      uint256 totalBondedTokens;\n      uint256 remainingBondedTokens;\n    }\n\n    // Reference to the genesis invite contract, for validating and spending invites during phase one and two\n    IDEFYGenesisInvite public defyGenesisInvite;\n\n    // Base URI for mask token uris\n    string private _maskBaseURI;\n\n    // Contract URI. This needs to be set at some point\n    string private _contractURI;\n\n    // Price (in MATIC) required to mint a mask\n    uint256 public mintPrice;\n\n    // Commission divisor\n    uint256 public commissionDivisor;\n\n    // Mapping to keep track of the number of remaining mask types\n    mapping(MaskType => uint256) public _remainingMaskTypeAllocation;\n\n    // Tracker of how many tokens have been bonded overall\n    uint256 private _totalBondedTokens;\n\n    // Mapping of mask id to on-chain bonded token metadata\n    mapping(uint256 => DEFYGenesisMaskMetadata) private _defyGenesisMaskMetadata;\n\n    mapping(uint256 => uint256) private _vrfRequestIdToTokenId;\n\n    // State variables that are used to enable and disable the various minting phases via the below modifiers\n    bool public phaseOneActive;\n    bool public phaseTwoActive;\n    bool public publicMintActive;\n\n    bool public chainlinkVrfActive;\n\n    event MaskTokensAssigned(uint256 tokenId, uint256 amount);\n    event MaskTokensUnlocked(uint256 tokenId, uint256 amount);\n\n    modifier whenPhaseOneActive() {\n        require(phaseOneActive, 'DGM: Phase 1 not active');\n        _;\n    }\n\n    modifier whenPhaseTwoActive() {\n        require(phaseTwoActive, 'DGM: Phase 2 not active');\n        _;\n    }\n\n    modifier whenPublicMintActive() {\n        require(publicMintActive, 'DGM: Public mint not active');\n        _;\n    }\n\n    constructor(address vrfCoordinator, address vrfLinkToken) ERC721(\"DEFYGenesisMask\", \"DGM\") VRFConsumerBaseV2(vrfCoordinator) {\n        _grantRole(DEFAULT_ADMIN_ROLE, msg.sender);\n        _grantRole(PAUSER_ROLE, msg.sender);\n        _grantRole(MINTER_ROLE, msg.sender);\n\n        VRFCOORDINATOR = VRFCoordinatorV2Interface(vrfCoordinator);\n        LINKTOKEN = LinkTokenInterface(vrfLinkToken);\n\n        // Set up the various mask type allocations\n        _remainingMaskTypeAllocation[MaskType.PRIZE_MASK] = 1;\n        _remainingMaskTypeAllocation[MaskType.ELITE_MASK] = 1000;\n        _remainingMaskTypeAllocation[MaskType.MID_MASK] = 5500;\n        _remainingMaskTypeAllocation[MaskType.LOW_MASK] = 2387;\n\n        // Initialise the mint price\n        mintPrice = 160 ether;\n\n        // Start the contract with all phases disabled\n        phaseOneActive = false;\n        phaseTwoActive = false;\n        publicMintActive = true;\n\n        // Start contract without ChainlinkVRF\n        chainlinkVrfActive = false;\n\n        // Set the default commission divisor to 10 (10%)\n        commissionDivisor = 10;\n\n        // Initialise totalBondedTokens\n        _totalBondedTokens = 0;\n\n        // Skip mask zero\n        _tokenIdCounter.increment();\n    }\n\n    /// @notice Allow updating of the ChainlinkVRF parameters\n    function updateChainlinkParameters(uint64 newVrfSubscriptionId, bytes32 newVrfKeyHash, uint32 newVrfCallbackGasLimit) public onlyRole(DEFAULT_ADMIN_ROLE) {\n      vrfSubscriptionId = newVrfSubscriptionId;\n      vrfKeyHash = newVrfKeyHash;\n      vrfCallbackGasLimit = newVrfCallbackGasLimit;\n    }\n\n    /// @notice View the contract URI. This is needed to allow automatic importing of collection metadata on OpenSea\n    function contractURI() public view returns (string memory) {\n        return _contractURI;\n    }\n\n    /// @notice Sets the contract URI.\n    function setContractURI(string memory uri) public onlyRole(DEFAULT_ADMIN_ROLE) {\n        _contractURI = uri;\n    }\n\n    /// @notice Sets the base URI used for the tokens. This will be updated when new masks are uploaded to IPFS\n    function setBaseURI(string memory uri) public onlyRole(DEFAULT_ADMIN_ROLE) {\n        _maskBaseURI = uri;\n    }\n\n    /// @notice Get the TokenURI for the supplied token, in the form {baseURI}{tokenId}.json\n    function tokenURI(uint256 tokenId) public view override returns (string memory) {\n      require(_exists(tokenId), \"DGM: URI query for nonexistent token\");\n\n      return string(abi.encodePacked(_maskBaseURI, Strings.toString(tokenId), '.json'));\n    }\n\n    /// @notice Pause the contract, preventing public minting and transfers\n    function pause() public onlyRole(PAUSER_ROLE) {\n        _pause();\n    }\n\n    /// @notice Unpause the contract, allowing public minting and transfers\n    function unpause() public onlyRole(PAUSER_ROLE) {\n        _unpause();\n    }\n\n    /// @notice Admin function to allow updating of phase one status\n    function updatePhaseOneStatus(bool active) public onlyRole(DEFAULT_ADMIN_ROLE) {\n      phaseOneActive = active;\n    }\n\n    /// @notice Admin function to allow updating of phase two status\n    function updatePhaseTwoStatus(bool active) public onlyRole(DEFAULT_ADMIN_ROLE) {\n      phaseTwoActive = active;\n    }\n\n    /// @notice Admin function to allow updating of public mint status\n    function updatePublicMintStatus(bool active) public onlyRole(DEFAULT_ADMIN_ROLE) {\n      publicMintActive = active;\n    }\n\n    /// @notice Admin function to determine whether ChainlinkVRF is used for randomness of token assignment\n    function updateChainlinkVrfActive(bool active) public onlyRole(DEFAULT_ADMIN_ROLE) {\n      chainlinkVrfActive = active;\n    }\n\n    /// @notice Admin function to allow updating of the mint price\n    function updateMintPrice(uint256 newMintPrice) public onlyRole(DEFAULT_ADMIN_ROLE) {\n      mintPrice = newMintPrice;\n    }\n\n    function updateMsg(string memory message, uint256 index) public onlyRole(DEFAULT_ADMIN_ROLE) {\n      _kha0sMsgs[index] = message;\n    }\n\n    /// @notice Admin function to update the phase 2 commission divisor\n    function updatePhaseTwoCommissionDivisor(uint256 newCommissionDivisor) public onlyRole(DEFAULT_ADMIN_ROLE) {\n      require(newCommissionDivisor != 0, 'DGM: Cannot set commission divisor to 0');\n      commissionDivisor = newCommissionDivisor;\n    }\n\n    /// @notice Admin function to allow updating of the connected invite contract address\n    function updateInviteContractAddress(address inviteContractAddress) public onlyRole(DEFAULT_ADMIN_ROLE) {\n      defyGenesisInvite = IDEFYGenesisInvite(inviteContractAddress);\n    }\n\n    /// @notice Public phase one mint function, allowing holders of a phase 1 invite to mint a mask\n    function phaseOneInviteMint(uint256 inviteId)\n      public\n      payable\n      whenNotPaused\n      whenPhaseOneActive\n      nonReentrant\n    {\n      require(msg.value == mintPrice, 'DGM: incorrect token amount sent to mint');\n\n      // Get invite metadata from invite contract\n      DEFYGenesisInviteMetadata memory inviteMetadata = defyGenesisInvite.getInviteMetadata(inviteId);\n\n      require(inviteMetadata.seriesId == PHASE_ONE_INVITE_SERIES_ID, 'DGM: cannot use invite fron another series for phase 1');\n\n      // Spend the invite. This function will revert the transaction if the invite has already been sent or does not belong to the msg sender\n      defyGenesisInvite.spendInvite(inviteId, msg.sender);\n\n      // Mint mask\n      _mintMask(msg.sender);\n    }\n\n    /// @notice Public phase two mint function, allowing holders of a phase 2 invite to mint a mask. This function also pays a 10% commission to the original holder of the phase 2 invite\n    function phaseTwoInviteMint(uint256 inviteId)\n      public\n      payable\n      whenNotPaused\n      whenPhaseTwoActive\n      nonReentrant\n    {\n      require(msg.value == mintPrice, 'DGM: incorrect token amount sent to mint');\n\n      // Get invite metadata from invite contract\n      DEFYGenesisInviteMetadata memory inviteMetadata = defyGenesisInvite.getInviteMetadata(inviteId);\n\n      require(inviteMetadata.seriesId == PHASE_TWO_INVITE_SERIES_ID, 'DGM: cannot use invite fron another series for phase two');\n\n      // Spend the invite. This function will revert the transaction if the invite has already been sent or does not belong to the msg sender\n      defyGenesisInvite.spendInvite(inviteId, msg.sender);\n\n      // Mint mask\n      _mintMask(msg.sender);\n\n      // Pay 10% commission to original owner of invite\n      (bool success,) = inviteMetadata.originalOwner.call{value : msg.value / commissionDivisor}('');\n\n      require(success, \"DEFYGenesisMask: commission payment failed\");\n    }\n\n    /// @notice Public mint function, does not require the user to hold an invite to mint\n    function publicMint()\n      public\n      payable\n      whenNotPaused\n      whenPublicMintActive\n    {\n      require(msg.value == mintPrice, 'DGM: incorrect token amount sent to mint');\n\n      _mintMask(msg.sender);\n    }\n\n    function validateCallerLoyalty(uint256 code)\n      public\n      view\n      returns (string memory)\n    {\n      return _kha0sMsgs[code];\n    }\n\n    /// @notice Underlying mint function that checks if there is any allocation remaining and triggers the ChainlinkVRF async function\n    function _mintMask(address to) internal {\n      uint256 tokenId = _tokenIdCounter.current();\n      require(tokenId < (MAX_MASKS - DEFY_RESERVED_MASKS), 'DGM: all public masks minted');\n\n      _tokenIdCounter.increment();\n      _safeMint(to, tokenId);\n\n      if (chainlinkVrfActive) {\n        submitRequestForRandomness(tokenId);\n      } else {\n        // Get random numbers\n        uint256[] memory randomNumbers = new uint256[](2);\n        randomNumbers[0] = random(tokenId);\n        randomNumbers[1] = random(tokenId*15231);\n\n        assignRandomTokenAmountToMask(tokenId, randomNumbers);\n      }\n    }\n\n    /// @notice Admin mask minting function, allowing admins to airdrop masks for free, up to the reserved amount\n    function adminMintMask(address to) public onlyRole(MINTER_ROLE) {\n      uint256 tokenId = _defyTokenIdCounter.current() + (MAX_MASKS - DEFY_RESERVED_MASKS) ;\n      require(tokenId >= MAX_MASKS - DEFY_RESERVED_MASKS, 'DGM: all public masks minted');\n\n      _defyTokenIdCounter.increment();\n      _safeMint(to, tokenId);\n\n      if (chainlinkVrfActive) {\n        submitRequestForRandomness(tokenId);\n      } else {\n        // Get random numbers\n        uint256[] memory randomNumbers = new uint256[](2);\n        randomNumbers[0] = random(tokenId);\n        randomNumbers[1] = random(tokenId*15231);\n\n        assignRandomTokenAmountToMask(tokenId, randomNumbers);\n      }\n    }\n\n    // @notice Admin function to mint the zero mask\n    function adminMintZeroMask(address to) public onlyRole(DEFAULT_ADMIN_ROLE) {\n      require(!_exists(0), 'DGM: zero already minted');\n\n      _safeMint(to, 0);\n    }\n\n    // Send request for randomness and store the request id against the token id being minted\n    function submitRequestForRandomness(uint256 tokenId) internal {\n      uint16 minimumRequestConfirmations = 3;\n      uint32 numWords = 2;\n\n      // Kick off randomness request to VRF\n      uint256 vrfRequestId = VRFCOORDINATOR.requestRandomWords(\n        vrfKeyHash,\n        vrfSubscriptionId,\n        minimumRequestConfirmations,\n        vrfCallbackGasLimit,\n        numWords\n      );\n\n      _vrfRequestIdToTokenId[vrfRequestId] = tokenId;\n    }\n\n    function random(uint256 seed) private view returns (uint256) {\n      return uint256(keccak256(abi.encodePacked(block.difficulty, block.timestamp, seed)));\n    }\n\n    /// @notice callback function from ChainlinkVRF that receives the onchain randomness\n    function fulfillRandomWords(\n      uint256 requestId,\n      uint256[] memory randomWords\n    ) internal override(VRFConsumerBaseV2) {\n      assignRandomTokenAmountToMask(_vrfRequestIdToTokenId[requestId], randomWords);\n    }\n\n    /// @notice assign tokens to the mask using the ChainlinkVRF random words as seeds\n    function assignRandomTokenAmountToMask(uint256 tokenId, uint256[] memory randomWords) internal {\n      // Check if prize mask still available, and ignore if this is an admin minted mask\n      if (_remainingMaskTypeAllocation[MaskType.PRIZE_MASK] > 0 && tokenId < MAX_MASKS - DEFY_RESERVED_MASKS) {\n        // Prize is still available, check if it was won\n        // Check is done by performing randomValue mod total remaining masks, if value is 0, prize was won\n        // This gives you a 1/{remaining masks} chance of winning\n        bool won = (randomWords[0] % (MAX_MASKS - DEFY_RESERVED_MASKS - tokenId)) == 0;\n\n        if (won) {\n          _defyGenesisMaskMetadata[tokenId].totalBondedTokens = PRIZE_MASK_VALUE;\n          _defyGenesisMaskMetadata[tokenId].remainingBondedTokens = PRIZE_MASK_VALUE;\n          _remainingMaskTypeAllocation[MaskType.PRIZE_MASK] = 0;\n          _totalBondedTokens += PRIZE_MASK_VALUE;\n\n          emit MaskTokensAssigned(tokenId, PRIZE_MASK_VALUE);\n          return;\n        }\n      }\n\n      // No prize mask was won, continuing with award\n      MaskType maskType;\n\n      // First 1000 tokens have 50% chance of an elite mask\n      if (tokenId < 1000) {\n        bool isElite = (randomWords[0] % 2) == 0;\n\n        if (isElite) {\n          maskType = MaskType.ELITE_MASK;\n        } else {\n          maskType = MaskType.MID_MASK;\n        }\n      } else {\n        uint256 totalRemainingMasks = _remainingMaskTypeAllocation[MaskType.ELITE_MASK] + _remainingMaskTypeAllocation[MaskType.MID_MASK] + _remainingMaskTypeAllocation[MaskType.LOW_MASK];\n\n        // Pick random number between 0 and total remaining masks\n        uint256 selectedMaskType = randomWords[0] % totalRemainingMasks;\n\n        // Divide remaining masks up across the values, going 0 - remainingElite-1, remainingElite - remainingMid-1, remainingMid - totalRemaining\n        // Pick mask type based on the random number selected above\n        maskType = selectedMaskType < _remainingMaskTypeAllocation[MaskType.ELITE_MASK] ?\n          MaskType.ELITE_MASK :\n          (selectedMaskType > totalRemainingMasks - _remainingMaskTypeAllocation[MaskType.LOW_MASK] ?\n            MaskType.LOW_MASK :\n            MaskType.MID_MASK);\n      }\n\n      uint256 rewardAmount;\n\n      // Perform random swing of token value (get total swing range and subtract half to do negative amounts)\n      if (maskType == MaskType.ELITE_MASK) {\n        uint256 swingValue = (randomWords[1] % 401);\n        rewardAmount = ELITE_MASK_MID_VALUE + swingValue - 200;\n      } else if (maskType == MaskType.MID_MASK) {\n        uint256 swingValue = (randomWords[1] % 41);\n        rewardAmount = MID_MASK_MID_VALUE + swingValue - 20;\n      } else {\n        uint256 swingValue = (randomWords[1] % 5);\n        rewardAmount = LOW_MASK_MID_VALUE + swingValue - 2;\n      }\n\n      _defyGenesisMaskMetadata[tokenId].totalBondedTokens = rewardAmount;\n      _defyGenesisMaskMetadata[tokenId].remainingBondedTokens = rewardAmount;\n\n      _totalBondedTokens += rewardAmount;\n      _remainingMaskTypeAllocation[maskType] -= 1;\n\n      emit MaskTokensAssigned(tokenId, rewardAmount);\n    }\n\n    /// @notice Get the total assigned tokens for a mask with the provided token id\n    function getTotalBondedTokensForMask(uint256 tokenId) public view returns (uint256) {\n      require(_exists(tokenId), 'DGM: token does not exist');\n\n      return _defyGenesisMaskMetadata[tokenId].totalBondedTokens;\n    }\n\n    /// @notice Get the total remaining bonded tokens for a mask with the provided token id\n    function getRemainingBondedTokensForMask(uint256 tokenId) public view returns (uint256) {\n      require(_exists(tokenId), 'DGM: token does not exist');\n\n      return _defyGenesisMaskMetadata[tokenId].remainingBondedTokens;\n    }\n\n    /// @notice Get the total amount of tokens that have been bonded across all masks on the contract\n    function getTotalBondedTokens() public view returns (uint256)\n    {\n      return _totalBondedTokens;\n    }\n\n    /// @notice Function to be called by backend API when bonded token emission events happen in the app\n    function unlockBondedTokensFromMask(uint256 tokenId, uint256 tokenAmount) public onlyRole(TOKEN_UNLOCKER_ROLE) {\n      require(_exists(tokenId), \"DGM: unlocking tokens from nonexistant mask\");\n      require(tokenAmount < _defyGenesisMaskMetadata[tokenId].remainingBondedTokens, 'DGM: cannot unlock more tokens than remaining on mask');\n\n      _defyGenesisMaskMetadata[tokenId].remainingBondedTokens -= tokenAmount;\n    }\n\n    // Prevent token transferring when contract is paused\n    function _beforeTokenTransfer(address from, address to, uint256 tokenId)\n        internal\n        whenNotPaused\n        override(ERC721, ERC721Enumerable)\n    {\n        super._beforeTokenTransfer(from, to, tokenId);\n    }\n\n    // Allow contract to receive MATIC directly\n    receive() external payable {}\n\n    // Allow withdrawal of the contract's current balance to the caller's address\n    function withdrawBalance() public onlyRole(BALANCE_WITHDRAWER_ROLE) {\n        (bool success,) = msg.sender.call{value : address(this).balance}('');\n        require(success, \"DGM: Withdrawal failed\");\n    }\n\n    // Allow withdrawal of the contract's current balance to the caller's address\n    function withdrawBalanceExceptFor(uint256 tokens) public onlyRole(BALANCE_WITHDRAWER_ROLE) {\n        (bool success,) = msg.sender.call{value : address(this).balance - tokens}('');\n        require(success, \"DGM: Withdrawal failed\");\n    }\n\n    // The following functions are overrides required by Solidity.\n    function supportsInterface(bytes4 interfaceId)\n        public\n        view\n        override(ERC721, ERC721Enumerable, AccessControl)\n        returns (bool)\n    {\n        return super.supportsInterface(interfaceId);\n    }\n}",
  "sourcePath": "/Users/nftstack/Documents/GitHub/neon-skies-local/contracts/DEFYGenesisMask.sol",
  "compiler": {
    "name": "solc",
    "version": "0.8.4+commit.c7e474f2.Emscripten.clang"
  },
  "schemaVersion": "3.4.7",
  "updatedAt": "2022-05-27T11:46:09.486Z",
  "devdoc": {
    "kind": "dev",
    "methods": {
      "approve(address,uint256)": {
        "details": "See {IERC721-approve}."
      },
      "balanceOf(address)": {
        "details": "See {IERC721-balanceOf}."
      },
      "getApproved(uint256)": {
        "details": "See {IERC721-getApproved}."
      },
      "getRoleAdmin(bytes32)": {
        "details": "Returns the admin role that controls `role`. See {grantRole} and {revokeRole}. To change a role's admin, use {_setRoleAdmin}."
      },
      "grantRole(bytes32,address)": {
        "details": "Grants `role` to `account`. If `account` had not been already granted `role`, emits a {RoleGranted} event. Requirements: - the caller must have ``role``'s admin role."
      },
      "hasRole(bytes32,address)": {
        "details": "Returns `true` if `account` has been granted `role`."
      },
      "isApprovedForAll(address,address)": {
        "details": "See {IERC721-isApprovedForAll}."
      },
      "name()": {
        "details": "See {IERC721Metadata-name}."
      },
      "owner()": {
        "details": "Returns the address of the current owner."
      },
      "ownerOf(uint256)": {
        "details": "See {IERC721-ownerOf}."
      },
      "paused()": {
        "details": "Returns true if the contract is paused, and false otherwise."
      },
      "renounceOwnership()": {
        "details": "Leaves the contract without owner. It will not be possible to call `onlyOwner` functions anymore. Can only be called by the current owner. NOTE: Renouncing ownership will leave the contract without an owner, thereby removing any functionality that is only available to the owner."
      },
      "renounceRole(bytes32,address)": {
        "details": "Revokes `role` from the calling account. Roles are often managed via {grantRole} and {revokeRole}: this function's purpose is to provide a mechanism for accounts to lose their privileges if they are compromised (such as when a trusted device is misplaced). If the calling account had been revoked `role`, emits a {RoleRevoked} event. Requirements: - the caller must be `account`."
      },
      "revokeRole(bytes32,address)": {
        "details": "Revokes `role` from `account`. If `account` had been granted `role`, emits a {RoleRevoked} event. Requirements: - the caller must have ``role``'s admin role."
      },
      "safeTransferFrom(address,address,uint256)": {
        "details": "See {IERC721-safeTransferFrom}."
      },
      "safeTransferFrom(address,address,uint256,bytes)": {
        "details": "See {IERC721-safeTransferFrom}."
      },
      "setApprovalForAll(address,bool)": {
        "details": "See {IERC721-setApprovalForAll}."
      },
      "symbol()": {
        "details": "See {IERC721Metadata-symbol}."
      },
      "tokenByIndex(uint256)": {
        "details": "See {IERC721Enumerable-tokenByIndex}."
      },
      "tokenOfOwnerByIndex(address,uint256)": {
        "details": "See {IERC721Enumerable-tokenOfOwnerByIndex}."
      },
      "totalSupply()": {
        "details": "See {IERC721Enumerable-totalSupply}."
      },
      "transferFrom(address,address,uint256)": {
        "details": "See {IERC721-transferFrom}."
      },
      "transferOwnership(address)": {
        "details": "Transfers ownership of the contract to a new account (`newOwner`). Can only be called by the current owner."
      }
    },
    "version": 1
  },
  "userdoc": {
    "kind": "user",
    "methods": {
      "adminMintMask(address)": {
        "notice": "Admin mask minting function, allowing admins to airdrop masks for free, up to the reserved amount"
      },
      "contractURI()": {
        "notice": "View the contract URI. This is needed to allow automatic importing of collection metadata on OpenSea"
      },
      "getRemainingBondedTokensForMask(uint256)": {
        "notice": "Get the total remaining bonded tokens for a mask with the provided token id"
      },
      "getTotalBondedTokens()": {
        "notice": "Get the total amount of tokens that have been bonded across all masks on the contract"
      },
      "getTotalBondedTokensForMask(uint256)": {
        "notice": "Get the total assigned tokens for a mask with the provided token id"
      },
      "pause()": {
        "notice": "Pause the contract, preventing public minting and transfers"
      },
      "phaseOneInviteMint(uint256)": {
        "notice": "Public phase one mint function, allowing holders of a phase 1 invite to mint a mask"
      },
      "phaseTwoInviteMint(uint256)": {
        "notice": "Public phase two mint function, allowing holders of a phase 2 invite to mint a mask. This function also pays a 10% commission to the original holder of the phase 2 invite"
      },
      "publicMint()": {
        "notice": "Public mint function, does not require the user to hold an invite to mint"
      },
      "setBaseURI(string)": {
        "notice": "Sets the base URI used for the tokens. This will be updated when new masks are uploaded to IPFS"
      },
      "setContractURI(string)": {
        "notice": "Sets the contract URI."
      },
      "tokenURI(uint256)": {
        "notice": "Get the TokenURI for the supplied token, in the form {baseURI}{tokenId}.json"
      },
      "unlockBondedTokensFromMask(uint256,uint256)": {
        "notice": "Function to be called by backend API when bonded token emission events happen in the app"
      },
      "unpause()": {
        "notice": "Unpause the contract, allowing public minting and transfers"
      },
      "updateChainlinkParameters(uint64,bytes32,uint32)": {
        "notice": "Allow updating of the ChainlinkVRF parameters"
      },
      "updateChainlinkVrfActive(bool)": {
        "notice": "Admin function to determine whether ChainlinkVRF is used for randomness of token assignment"
      },
      "updateInviteContractAddress(address)": {
        "notice": "Admin function to allow updating of the connected invite contract address"
      },
      "updateMintPrice(uint256)": {
        "notice": "Admin function to allow updating of the mint price"
      },
      "updatePhaseOneStatus(bool)": {
        "notice": "Admin function to allow updating of phase one status"
      },
      "updatePhaseTwoCommissionDivisor(uint256)": {
        "notice": "Admin function to update the phase 2 commission divisor"
      },
      "updatePhaseTwoStatus(bool)": {
        "notice": "Admin function to allow updating of phase two status"
      },
      "updatePublicMintStatus(bool)": {
        "notice": "Admin function to allow updating of public mint status"
      }
    },
    "version": 1
  }
}